:100000003AEF0EF00000000000EF00F000000000EA
:0A0010000000000000000000F3D71C
:0E001C00010162B102D08B9801D08B881200D6
:0E002A00010162B102D08B9601D08B861200CC
:0E003800010162B102D08D9601D08D861200BA
:0E004600010162B102D0899401D089841200B8
:0E005400010162B102D08B9C01D08B8C120096
:0E006200010162B102D08B9401D08B84120098
:0E007000010162B102D08B9A01D08B8A12007E
:0E007E00010162B102D08B9E01D08B8E120068
:0E008C00010162B102D08A9201D08A82120074
:0E009A00010162B102D08D9401D08D8412005C
:0E00A800010162B102D08F9201D08F8212004E
:0E00B600010162B102D08F9401D08F8412003C
:0E00C400010162B102D08B9801D08B8812002E
:0E00D200010162B102D08B9601D08B86120024
:0E00E000010162B102D08A9401D08A8412001C
:0E00EE00010162B102D08B9801D08B88120004
:0E00FC00010162B102D08B9601D08B861200FA
:0E010A00010162B102D08F9001D08F801200EF
:0E011800010162B102D08B9A01D08B8A1200D5
:0E012600010162B102D08B9801D08B881200CB
:0E013400010162B102D08B9601D08B861200C1
:0E014200010162B102D08B9201D08B821200BB
:0E015000010162B102D08B9A01D08B8A12009D
:0E015E00010162B102D08D9001D08D8012009F
:10016C000F0121B302D00000FBD762C11CFF1200AB
:0E017C00ACB202D00000FCD762C1ADFF120091
:0E018A00010162B102D08B9001D08B80120077
:0E019800010162B102D0899001D0898012006D
:0E01A600010162B102D08A9001D08A8012005D
:0E01B400010162B102D08D9201D08D82120045
:0E01C200010162B102D0899801D08988120033
:0E01D000010162B102D08B9801D08B88120021
:0E01DE00010162B102D08B9601D08B86120017
:0E01EC00010162B102D0899201D08982120015
:0E01FA00010162B102D08B9C01D08B8C1200EF
:0E020800010162B102D08B9E01D08B8E1200DC
:0E021600010162B102D08B9801D08B881200DA
:0E022400010162B102D08B9601D08B861200D0
:10023200C7B409D01F0EC514016E0150000A03E1B4
:0A024200010E006E01D0006A1200E8
:10024C00F250026EF29E0500FF6A0150FE6E0050E5
:08025C00FD6E02BEF28E1200DD
:1002640068B409D01F0E6614016E0150000A03E140
:0A027400010E006E01D0006A1200B6
:0C027E00000E0F0121B3010E006E1200F3
:10028A001DCF01F00F0122A302D02299228901C0B9
:04029A0000F012005E
:0A029E00000EACB2010E006E12005B
:0A02A800000E84B0010E006E12007B
:0A02B200000E82B0010E006E120073
:0A02BC00000E80B0010E006E12006B
:1002C600AECF01F0ABA202D0AB98AB8801C000F074
:0202D600120014
:1002D80079C05EF17AC05FF17BC060F17CC061F1EA
:1002E80001015C6B5D6B5D51120802E15C518E0887
:1002F80008E3B4DF005201E004D001015C4B5D2B40
:10030800F2D70101120E5D5D02E18F0E5C5D03E321
:100318007B0E006E26D0668066A022D0000179513F
:100328007A117B117C111BE001015E515F11601194
:1003380061110EE103C1E1FF04C1E2FF050EE66EA3
:1003480001C100F002C101F07DDF010E006E09D08D
:10035800010E01015E5F000E5F5B605B615BDCD7D5
:04036800006A120015
:0A036C00000E82BA010E006E1200AE
:0A037600000EA4BA010E006E120082
:0A038000000E82B8010E006E12009C
:0A038A00000E9EBA010E006E120074
:0A039400000E82B8010E006E120088
:0A039E00000E82B6010E006E120080
:0A03A800000E82BC010E006E120070
:0A03B200000E84B2010E006E12006E
:0A03BC00000E80B8010E006E120062
:0A03C600000E80B2010E006E12005E
:0A03D000000E82BA010E006E12004A
:0A03DA00000E82B8010E006E120042
:0A03E400000E82B6010E006E12003A
:0A03EE00000E82BE010E006E120028
:0A03F800000E81B0010E006E12002D
:0A040200000E82B2010E006E12001F
:0A040C00000E82B4010E006E120013
:0A041600000E82B8010E006E120005
:1004200090C05EF191C05FF192C060F193C061F144
:100430009E96C5869EB620D00001905191119211D2
:10044000931119E001015E515F11601161110CE11E
:1004500007C1E1FF08C1E2FF030EE66E05C100F02F
:1004600006C101F0F3DE08D0010E01015E5F000E4F
:100470005F5B605B615BDED70101C9CF5DF15C5101
:10048000000A02E1C58A01D0C59A9E96C58890C02F
:100490005EF191C05FF192C060F193C061F19EB6D0
:1004A00020D00001905191119211931119E0010196
:1004B0005E515F11601161110CE107C1E1FF08C1DC
:1004C000E2FF030EE66E05C100F006C101F0BEDEDC
:1004D00008D0010E01015E5F000E5F5B605B615B37
:0804E000DED75DC100F012003F
:1004E8009E965CC1C9FF90C05DF191C05EF192C05B
:1004F8005FF193C060F1C7A422D00001905191111F
:10050800921193111BE001015D515E115F116011A1
:100518000EE107C1E1FF08C1E2FF040EE66E05C166
:1005280000F006C101F08EDE010E006E3BD0010E18
:1005380001015D5F000E5E5B5F5B605BDCD790C0B6
:100548005DF191C05EF192C05FF193C060F19EB61B
:1005580022D0000190519111921193111BE00101D9
:100568005D515E115F1160110EE107C1E1FF08C125
:10057800E2FF040EE66E05C100F006C101F062DE7E
:10058800010E006E0FD0010E01015D5F000E5E5B73
:100598005F5B605BDCD7C5BC02D0006A03D0C58452
:0605A800020E006E1200BD
:0A05AE00000E82B6010E006E12006E
:0A05B800000E81B4010E006E120067
:0A05C200000E86B4010E006E120058
:0A05CC00000E86B2010E006E120050
:1005D60079C05CF17AC05DF17BC05EF17CC05FF1F1
:1005E600668266A220D0000179517A117B117C11B6
:1005F60019E001015C515D115E115F110CE103C14F
:10060600E1FF04C1E2FF060EE66E01C100F002C181
:1006160001F019DE08D0010E01015C5F000E5D5B82
:080626005E5B5F5BDED7120092
:04062E0066841200CC
:1006320090C05EF191C05FF192C060F193C061F130
:1006420001015C6B5D6B5D51120802E15C518E0829
:1006520008E3EEDD005201E004D001015C4B5D2BAA
:10066200F2D70101120E5D5D02E18F0E5C5D03E3C4
:100672007B0E006E26D0C580C5A022D0000190510D
:100682009111921193111BE001015E515F116011F2
:1006920061110EE107C1E1FF08C1E2FF050EE66E3E
:1006A20005C100F006C101F0D0DD010E006E09D0D7
:1006B200010E01015E5F000E5F5B605B615BDCD778
:0406C200006A1200B8
:0406C600C5841200D5
:1006CA0079C05EF17AC05FF17BC060F17CC061F1F4
:1006DA00A19A6686A1BA20D0000179517A117B11BC
:1006EA007C1119E001015E515F11601161110CE189
:1006FA0003C1E1FF04C1E2FF030EE66E01C100F08F
:10070A0002C101F09EDD08D0010E01015E5F000EFC
:10071A005F5B605B615BDED701016ACF5DF15C51B3
:10072A00000A02E1668A01D0669AA19A668879C0AF
:10073A005EF17AC05FF17BC060F17CC061F1A1BA61
:10074A0020D0000179517A117B117C1119E0010145
:10075A005E515F11601161110CE103C1E1FF04C137
:10076A00E2FF030EE66E01C100F002C101F069DD8D
:10077A0008D0010E01015E5F000E5F5B605B615B8A
:08078A00DED75DC100F0120092
:10079200A19A5CC16AFF79C05DF17AC05EF17BC04B
:1007A2005FF17CC060F168A422D0000179517A1116
:1007B2007B117C111BE001015D515E115F11601123
:1007C2000EE103C1E1FF04C1E2FF040EE66E01C1C6
:1007D20000F002C101F039DD010E006E3BD0010EC6
:1007E20001015D5F000E5E5B5F5B605BDCD779C021
:1007F2005DF17AC05EF17BC05FF17CC060F1A1BAAD
:1008020022D0000179517A117B117C111BE0010188
:100812005D515E115F1160110EE103C1E1FF04C180
:10082200E2FF040EE66E01C100F002C101F00DDD2F
:10083200010E006E0FD0010E01015D5F000E5E5BC6
:100842005F5B605BDCD766BC02D0006A03D0668463
:06085200020E006E120010
:0A085800000E82BA010E006E1200BD
:0A086200000E82B6010E006E1200B7
:10086C0090C05CF191C05DF192C05EF193C05FF1FC
:10087C00C582C5A220D00001905191119211931103
:10088C0019E001015C515D115E115F110CE107C1B2
:10089C00E1FF08C1E2FF060EE66E05C100F006C1DD
:1008AC0001F0CEDC08D0010E01015C5F000E5D5B37
:0808BC005E5B5F5BDED71200FA
:0A08C400000E86B0010E006E120057
:0A08CE00000E82B6010E006E12004B
:0A08D800000E81B2010E006E120046
:0A08E200000E82BE010E006E12002F
:0A08EC00000E82B8010E006E12002B
:0A08F600000E84B4010E006E120023
:0A090000000E80B4010E006E12001C
:0A090A00000E82B8010E006E12000C
:0A091400000E82BC010E006E1200FE
:0A091E00000E82B6010E006E1200FA
:0A092800000E84B6010E006E1200EE
:100932000101526B536B1DC100F01EC101F085DC39
:1009420000C052F1000E0101536F52C100F053C1B9
:0409520001F012009E
:1009560001015A6B5B6B53C158F154C159F152C135
:1009660000F00036009000800FC1E1FF10C1E2FFE9
:1009760000C0E6FF0DC100F00EC101F064DC0050BE
:1009860001015A13000E5B13010E555F000E565BF4
:100996005551561115E023C1E1FF24C1E2FF010EB6
:1009A600E66E21C100F022C101F04DDC58C1E1FF25
:1009B60059C1E2FF00C0E6FF0101584B592BE4D7AD
:1009C60023C1E1FF24C1E2FFE66A21C100F022C192
:1009D60001F039DC58C1E1FF59C1E2FF00C0E6FF72
:1009E60001015751000A05E125C100F026C101F0B9
:1009F6002ADC01015751010A05E119C100F01AC1AB
:0E0A060001F021DC5AC100F05BC101F01200CA
:100A1400320E0001F56F020EF66F000EF76F000E36
:100A2400F86F320EF96F060EFA6F000EFB6F000EB0
:100A3400FC6F6C0E0101356F080E366F000E376FB8
:100A4400000E386F200E396F040E3A6F5C0E3B6F48
:100A5400010E3C6FE80E316F040E326F5C0E336F83
:100A6400010E346FC60E296F060E2A6F000E2B6F0F
:100A7400000E2C6F949894968B988B9694889486F9
:0A0A8400C79EC79C380EC66E120014
:100A8E007C0E01013D6F010E3E6F620E3F6F010E37
:100A9E00406FC60E416F020E426F000E436F000E86
:100AAE00446F8A0E116F030E126F000E136F000E3D
:100ABE00146F9E0E156F020E166F000E176F000E3E
:100ACE00186FAC8A900EAB6E948E949C9EAA03D037
:080ADE00AECF00F0FBD71200BF
:100AE6006C0E01013D6F010E3E6F620E3F6F010EEF
:100AF600406F8A0E416F020E426F000E436F000E6A
:100B0600446F760E116F030E126F000E136F000EF8
:100B1600146F7E0E156F020E166F000E176F000E05
:100B2600186F0F01218B900E226F98849892A4AAB9
:0A0B360003D01DCF00F0FBD7120022
:100B400001015A6B5B6B53C158F154C159F152C149
:100B500000F0003600900FC1E1FF10C1E2FF00C0BD
:100B6000E6FF0DC100F00EC101F026EC01F00050CF
:100B700001015A13000E5B1355C100F056C101F07C
:100B8000010E555F000E565B0050011018E00FC1BA
:100B9000E1FF10C1E2FF58C1E9FF59C1EAFFEECF02
:100BA000E6FF0DC100F00EC101F026EC01F000508F
:100BB00001015A13000E5B13584B592BDDD75751C7
:100BC000000A06E125C100F026C101F026EC01F083
:100BD00001015751010A06E119C100F01AC101F0E3
:0E0BE00026EC01F05AC100F05BC101F01200DA
:100BEE0021D0CF0EAF6EAC944BDF6BD0670EAF6ED5
:100BFE00AC9446DF66D0CF0EAF6EAC8441DF61D0D1
:100C0E00670EAF6EAC843CDF5CD0440EAF6EAC842E
:100C1E0037DF57D0220EAF6EAC8432DF52D0060EC5
:100C2E00006E58D00101000E006E4F1908E1005001
:100C3E004E1905E1120E4D1902E14C51C00AD1E0D8
:100C4E00000E006E4F1908E100504E1905E1250EF9
:100C5E004D1902E14C51800AC9E0000E006E4F1989
:100C6E0008E100504E1905E14B0E4D1902E14C51B1
:100C7E00000AC1E0000E006E4F1908E100504E1937
:100C8E0005E1960E4D1902E14C51000AB9E0000E35
:100C9E00006E4F1908E100504E1905E1E10E4D1995
:100CAE0002E14C51000AB1E04F51000A08E14E51E9
:100CBE00010A05E14D51C20A02E14C51000AAAE0B7
:100CCE00AED77C0E096F010E0A6F620E0B6F010E0E
:060CDE000C6F006A120019
:100CE4004CC14FF14DC150F14EC151F10BD0A00E8A
:100CF400C86E8EDE44D0280EC86E8ADE40D0040E44
:100D0400006E3FD04FC1F6FF50C1F7FF51C1F8FF4D
:100D14000900F5CF01F00900F5CF02F00900F5CF85
:100D240003F00900F5CF04F00450000A08E1035071
:100D3400010A05E10250860A02E10150A00AD7E047
:100D44004FC1F6FF50C1F7FF51C1F8FF0900F5CFBD
:100D540001F00900F5CF02F00900F5CF03F0090016
:100D6400F5CF04F00450000A08E10350060A05E137
:100D740002501A0A02E10150800ABDE0C0D7000EF9
:040D8400006E1200EB
:100D880021D0CF0EAF6EAC947EDE6BD0670EAF6E07
:100D9800AC9479DE66D0CF0EAF6EAC8474DE61D0D1
:100DA800670EAF6EAC846FDE5CD0440EAF6EAC8461
:100DB8006ADE57D0220EAF6EAC8465DE52D0060EC6
:100DC800006E58D00101000E006E4F1908E1005066
:100DD8004E1905E1120E4D1902E14C51C00AD1E03D
:100DE800000E006E4F1908E100504E1905E1250E5E
:100DF8004D1902E14C51800AC9E0000E006E4F19EE
:100E080008E100504E1905E14B0E4D1902E14C5115
:100E1800000AC1E0000E006E4F1908E100504E199B
:100E280005E1960E4D1902E14C51000AB9E0000E99
:100E3800006E4F1908E100504E1905E1E10E4D19F9
:100E480002E14C51000AB1E04F51000A08E14E514D
:100E5800010A05E14D51C20A02E14C51000AAAE01B
:100E6800AED77C0E096F010E0A6F620E0B6F010E72
:060E78000C6F006A12007D
:100E7E0038D00F0120870D0E1F6F040E1E6F2185B7
:100E8E002BDE7ED00F012087060E1F6F820E1E6F87
:100E9E00218522DE75D00F012087030E1F6F400EB5
:100EAE001E6F218519DE6CD00F012087010E1F6F7A
:100EBE00A00E1E6F218510DE63D00F012087010E5C
:100ECE001F6F150E1E6F218507DE5AD00F0120876A
:100EDE001F6B8A0E1E6F2185FFDD52D0060E006E2F
:100EEE0059D0000E006E01014F1908E100504E1945
:100EFE0005E1120E4D1902E14C51C00ABAE0000E86
:100F0E00006E4F1908E100504E1905E1250E4D19DE
:100F1E0002E14C51800AB6E0000E006E4F1908E156
:100F2E0000504E1905E14B0E4D1902E14C51000ACD
:100F3E00B2E0000E006E4F1908E100504E1905E1A7
:100F4E00960E4D1902E14C51000AAEE0000E006EF5
:100F5E004F1908E100504E1905E1E10E4D1902E15D
:100F6E004C51000AAAE04F51000A08E14E51010A05
:100F7E0005E14D51C20A02E14C51000AA7E0AED77D
:100F8E0001016C0E096F010E0A6F620E0B6F010EDE
:060F9E000C6F006A120056
:100FA40021D0CF0EAF6EAC9470DD6BD0670EAF6EF8
:100FB400AC946BDD66D0CF0EAF6EAC8466DD61D0D1
:100FC400670EAF6EAC8461DD5CD0440EAF6EAC8452
:100FD4005CDD57D0220EAF6EAC8457DD52D0060EC6
:100FE400006E58D00101000E006E4F1908E1005048
:100FF4004E1905E1120E4D1902E14C51C00AD1E01F
:10100400000E006E4F1908E100504E1905E1250E3F
:101014004D1902E14C51800AC9E0000E006E4F19CF
:1010240008E100504E1905E14B0E4D1902E14C51F7
:10103400000AC1E0000E006E4F1908E100504E197D
:1010440005E1960E4D1902E14C51000AB9E0000E7B
:10105400006E4F1908E100504E1905E1E10E4D19DB
:1010640002E14C51000AB1E04F51000A08E14E512F
:10107400010A05E14D51C20A02E14C51000AAAE0FD
:10108400AED77C0E096F010E0A6F620E0B6F010E54
:061094000C6F006A12005F
:10109A0059D001014DB102D0929201D092820F0132
:1010AA00259376D001014DB102D0929801D0928851
:1010BA006FD001014DB102D0969201D0968268D0CC
:1010CA0001014DB102D0949601D0948661D00101FC
:1010DA004DB102D0949801D094885AD001014DB1F3
:1010EA0002D0949A01D0948A53D001014DB102D012
:1010FA00949401D094844CD001014DB102D09392C2
:10110A0001D0938245D001014DB102D0949E01D005
:10111A00948E3ED001014DB102D0949C01D0948CA2
:10112A0037D001014DB102D0949601D0948630D0C7
:10113A0001014DB102D0949801D0948829D0010EB2
:10114A00006E28D001014C51000AA3E04C51010A5B
:10115A00A9E04C51020AADE04C51030AB1E04C51EE
:10116A00040AB5E04C51050AB9E04C51060ABDE043
:10117A004C51070AC1E04C51080AC5E04C51090A12
:10118A00C9E04C510A0ACDE04C510B0AD1E0D7D73D
:06119A00000E006E1200C1
:1011A00059D001014DB102D0929001D092800F012F
:1011B000259176D001014DB102D0949001D0948058
:1011C0006FD001014DB102D0969001D0968068D0C9
:1011D00001014DB102D0949601D0948661D00101F5
:1011E0004DB102D0949801D094885AD001014DB1EC
:1011F00002D0949A01D0948A53D001014DB102D00B
:10120000949201D094824CD001014DB102D09390C0
:1012100001D0938045D001014DB102D0949E01D000
:10122000948E3ED001014DB102D0949C01D0948C9B
:1012300037D001014DB102D0949601D0948630D0C0
:1012400001014DB102D0949801D0948829D0010EAB
:10125000006E28D001014C51000AA3E04C51010A54
:10126000A9E04C51020AADE04C51030AB1E04C51E7
:10127000040AB5E04C51050AB9E04C51060ABDE03C
:101280004C51070AC1E04C51080AC5E04C51090A0B
:10129000C9E04C510A0ACDE04C510B0AD1E0D7D736
:0612A000000E006E1200BA
:1012A6005DD001014DB102D0929401D092840F011C
:1012B60025957AD001014DB102D0969601D0968639
:1012C60073D001014DB102D0969401D096846CD0B2
:1012D60001014DB102D0949601D0948665D00101EA
:1012E6004DB102D0949801D094885ED001014DB1E1
:1012F60002D0949A01D0948A57D001014DB102D000
:10130600989001D0988050D001014DB102D09394AD
:1013160001D0938449D001014DB102D0989401D0F7
:1013260098840F01239540D001014DB102D09892C7
:1013360001D098820F01239337D001014DB102D01D
:10134600949601D0948630D001014DB102D0949884
:1013560001D0948829D0010E006E28D001014C518D
:10136600000A9FE04C51010AA5E04C51020AA9E08F
:101376004C51030AADE04C51040AB1E04C51050A48
:10138600B5E04C51060AB9E04C51070ABDE04C5194
:10139600080AC1E04C51090AC7E04C510A0ACDE0DF
:0E13A6004C510B0AD1E0D7D7000E006E12009A
:1013B4004CC14FF14DC150F14EC151F10DD0A00EB1
:1013C400C86E0AEC05F045D0280EC86E0AEC05F08C
:1013D40040D0040E006E3FD04FC1F6FF50C1F7FF5E
:1013E40051C1F8FF0900F5CF01F00900F5CF02F073
:1013F4000900F5CF03F00900F5CF04F00450000A0A
:1014040008E10350010A05E10250860A02E1015095
:10141400A00AD5E04FC1F6FF50C1F7FF51C1F8FF54
:101424000900F5CF01F00900F5CF02F00900F5CF6E
:1014340003F00900F5CF04F00450000A08E103505A
:10144400060A05E102501A0A02E10150800ABCE0D2
:08145400C0D7000E006E12006B
:10145C004CC14FF14DC150F14EC151F10DD0A00E08
:10146C00C86E0AEC05F045D0280EC86E0AEC05F0E3
:10147C0040D0040E006E3FD04FC1F6FF50C1F7FFB5
:10148C0051C1F8FF0900F5CF01F00900F5CF02F0CA
:10149C000900F5CF03F00900F5CF04F00450000A61
:1014AC0008E10350010A05E10250860A02E10150ED
:1014BC00A00AD5E04FC1F6FF50C1F7FF51C1F8FFAC
:1014CC000900F5CF01F00900F5CF02F00900F5CFC6
:1014DC0003F00900F5CF04F00450000A08E10350B2
:1014EC00060A05E102501A0A02E10150800ABCE02A
:0814FC00C0D7000E006E1200C3
:101504004CC14EF14DC14FF199EC04F0FDC052F1C4
:101514004E0E536F010E546F020E556F000E566F30
:08152400576BA0EC05F012006A
:10152C000BC1E1FF0CC1E2FF4CC1E9FF4DC1EAFF69
:10153C00EECFE6FF09C100F00AC101F026EC01F084
:04154C00006A12001F
:101550000101506B4CC14FF14D6B0D0E4D5D19E209
:101560005051410F006E00C04EF199EC04F0FDC0E7
:1015700052F14E0E536F010E546F020E556F000E56
:10158000566F576BA0EC05F0020E010150274D2B52
:04159000E4D712008A
:101594004CC14EF199EC04F0FDC052F14E0E536F64
:1015A400010E546F010E556F000E566F010E576FEA
:1015B400A0EC05F0FDC052F14D0E0101536F010E78
:1015C400546F010E556F000E566F576BABEC04F061
:0615D4004DC100F0120001
:1015DA000101506B4CC14FF14D6B0D0E4D5D19E27F
:1015EA005051420F006E00C04EF199EC04F0FDC05C
:1015FA0052F14E0E536F010E546F020E556F000ECC
:10160A00566F576BA0EC05F0020E010150274D2BC7
:04161A00E4D71200FF
:10161E00300E01014C25006E000E4D21016E000EA4
:10162E004E21026E1C0E0024F66E000E0120F76E87
:10163E00000E0220F86E0900F5CF2DF10900F5CF4E
:10164E002EF10900F5CF2FF10900F5CF30F1120080
:10165E004CC1F6FF4DC1F7FF4EC1F8FF0900F5CFA3
:10166E001DF10900F5CF1EF10900F5CF1FF109009C
:10167E00F5CF20F1040E01014C25F66E000E4D2122
:10168E00F76E000E4E21F86E0900F5CF25F1090018
:10169E00F5CF26F10900F5CF27F10900F5CF28F196
:1016AE00080E4C25F66E000E4D21F76E000E4E21E3
:1016BE00F86E0900F5CF19F10900F5CF1AF10900FE
:1016CE00F5CF1BF10900F5CF1CF10C0E4C25F66E73
:1016DE00000E4D21F76E000E4E21F86E0900F5CF6B
:1016EE000DF10900F5CF0EF10900F5CF0FF109004C
:1016FE00F5CF10F1100E4C25F66E000E4D21F76E43
:10170E00000E4E21F86E0900F5CF21F10900F5CF3C
:10171E0022F10900F5CF23F10900F5CF24F11200D3
:10172E001CD046C14CF147C14DF148C14EF18FDE80
:10173E001FD046C14CF147C14DF148C14EF133DEC9
:10174E0017D046C14CF147C14DF148C14EF172EC74
:10175E0006F00ED0010E006E0BD001014551000AAD
:10176E00E0E04551010AE5E04551020AEAE0F2D710
:02177E00120057
:10178000090E0B6E1E0E0C6EE40E0D6E0D2EFED7A6
:0C1790000C2EFCD70B2EFAD70000120024
:10179C0015D046C14CF147C14DF1FCDC1AD046C105
:1017AC004CF147C14DF173DC14D046C14CF147C12B
:1017BC004DF173DD0ED0010E006E0BD001014551C1
:1017CC00000AE7E04551010AEAE04551020AEDE062
:0417DC00F2D712002E
:1017E00001014C6BD7DE00C000F1010E01014C6F0E
:1017F000D1DE00C0FEF0000E0001FF6FFEC001F060
:10180000006A00C0FEF001C0FFF0010100510012AB
:0E181000000E011200C0FEF001C0FFF0120039
:10181E004BC1FDF048C14CF149C14DF14AC14EF1E9
:10182E0017DF45C14CF146C14DF147C14EF1F0DE17
:02183E00120096
:101840005E0E01014C6F4D6B5DDE2B0E01014C6F86
:10185000010E4D6F57DE2C0E01014C6F010E4D6FC6
:1018600051DE2D0E01014C6F100E4D6F4BDE2E0E12
:1018700001014C6F200E4D6F45DE2F0E01014C6FA4
:10188000010E4D6F3FDE300E01014C6F010E4D6FAA
:1018900039DE310E01014C6F100E4D6F33DE320E0A
:1018A00001014C6F200E4D6F2DDE330E01014C6F88
:1018B000010E4D6F27DE340E01014C6F100E4D6F7F
:1018C00021DE350E01014C6FFF0E4D6F1BDE360E13
:1018D00001014C6F0F0E4D6F15DE370E01014C6F7D
:1018E0000F0E4D6F0FDE380E01014C6F4D6B0ADE8F
:1018F000390E01014C6F4D6B05DE3A0E01014C6F44
:10190000010E4D6FFFDD3B0E01014C6F010E4D6F5F
:10191000F9DD3C0E01014C6FFF0E4D6FF3DD3D0E06
:1019200001014C6FFF0E4D6FEDDD3E0E01014C6F5E
:101930004D6BE8DD3F0E01014C6F4D6BE3DD400E5A
:1019400001014C6F4D6BDEDD5B0E01014C6F110E22
:101950004D6FD8DD5C0E01014C6FFF0E4D6FD2DD77
:101960005D0E01014C6F300E4D6FCCDD280E010174
:101970004C6FEEDD140E4C6F30DE5E0E4C6F880E39
:061980004D6FC0DD1200F6
:10198600D00E0C6EC90E0D6E0D2EFED70C2EFCD78A
:0619960000000000120039
:10199C0045C1FEF046C1FFF00D0E0101006F0A0EAD
:1019AC00486F35D0FEC04CF1FFC04DF1B9DD3AD0D7
:1019BC00FEC0E9FFFFC0EAFFEE5209E0FEC04CF1A9
:1019CC00FFC04DF1ADDD0001FE4BFF2BF1D72AD04E
:1019DC00FEC0E9FFFFC0EAFFEE5209E0FEC04CF189
:1019EC00FFC04DF19DDD0001FE4BFF2BF1D7000E2A
:1019FC0001014C6F010E4D6F93DD480E01014C6FD0
:101A0C00010E4D6F8DDD0ED0060E006E0CD0010157
:101A1C004751000AC7E04751010ACAE04751020A80
:081A2C00D7E0F2D7006A1200B6
:0E1A3400800E01014C6F630E4D6F62DD1200DB
:101A42002FD046C14CF147C14DF148C14EF149C1B9
:101A52004FF1F7EC05F032D046C14CF147C14DF1E0
:101A620048C14EF149C14FF1D2EC07F027D046C12F
:101A72004CF147C14DF148C14EF149C14FF13FEC24
:101A820007F01CD046C14CF147C14DF148C14EF19F
:101A920049C14FF1C4EC06F011D0010E006E0ED018
:101AA20001014551000ACDE04551010AD5E04551F9
:0E1AB200020ADDE04551100AE5E0EFD7120010
:101AC0000101456B070E466F010E476F67DE01018E
:101AD000456BD40E466F1D0E476F000E486F27DE14
:101AE000010E0101456F800E466F250E476F000EF7
:0A1AF000486F496FA6DF44DE1200C4
:101AFA000900F5CFE6FF0006FBE10106F9E1120055
:101B0A00600E0101456F1D0E466F000E476FC00E35
:101B1A00486F1D0E496F000E4A6F5A0E4B6F7ADEE0
:101B2A00650E456F000E466F020E476F32DF510E8B
:101B3A000101456F000E466F020E476F2ADF150E30
:101B4A000101456F000E466F020E476F22DF6DDFFF
:081B5A0015DF71DE13DF12003C
:101B62003EDE00C0F3F001C0F4F02A50011802E199
:101B720000502918D8B47CD0000E0001F41902E1FB
:101B8200100EF31908E13E0E0101456F000E466F7B
:101B9200020E476F02DF000E0001F41902E1010E8E
:101BA200F31908E12B0E0101456F000E466F020E7C
:101BB200476FF3DE000E0001F41902E1020EF31981
:101BC20008E1A70E0101456F000E466F020E476F36
:101BD200E4DE000E0001F41902E1040EF31908E13B
:101BE200940E0101456F000E466F020E476FD5DE5F
:101BF200000E0001F41902E1080EF31908E1BA0E11
:101C02000101456F000E466F020E476FC6DE000EE1
:101C12000001F41902E1200EF31908E1E00E0101BE
:101C2200456F000E466F020E476FB7DE000E0001D1
:101C3200F41902E1400EF31908E1CD0E0101456FDE
:101C4200000E466F020E476FA8DE000E0001F41967
:101C520002E1800EF31908E17D0E0101456F000ECD
:101C6200466F020E476F99DEF3C029F0F4C02AF0E6
:021C720012005E
:0E1C7400ECEC0EF023DF47DF72DFFED7FFD768
:101DD80010EE15F0DE0E006E010E016E820EF66E2C
:0E1DE8001C0EF76E000EF86E7DEC0DF0120072
:101C82002D2D2D2D2D2D2D2D2D2D2D2D2D2D2D2D82
:041C92002D2D2D00C7
:021C960000004C
:101C980020202D202D202D202D202D202D204720C7
:031CA8002D2000EC
:101CAB0020202D202D202D202D202D202D202D20CE
:031CBB00482000BE
:101CBE0020546F75636820436C616D7020436C69AE
:041CCE00636B200024
:101CD2002D2D2D2D2D2D2D2D2D2D2D2D2D2D2D2D32
:041CE2002D2D2D0077
:041CE60000000000FA
:101CEA00202041202D202D202D202D202D202D207B
:031CFA002D20009A
:041CFD0000000000E3
:101D010020202D202D202D202D2045202D202D205F
:031D11002D200082
:101D140020202D202D202D202D202D2046202D204B
:031D24002D20006F
:101D270020202D202D202D2044202D202D202D203A
:031D37002D20005C
:101D3A0020202D2042202D202D202D202D202D2029
:031D4A002D200049
:101D4D0020202D202D2043202D202D202D202D2015
:031D5D002D200036
:101D6000980162018A0162015E016201340162012F
:101D7000260162015001620142016201A601620175
:101D800008026201FA016201240262011602620184
:101D9000BC020000B2020000A8020000E403000040
:101DA000DA030000D003000002040000F803000082
:101DB000EE030000A80300009E030000940300004F
:101DC00032060000C60600006C080000E8045C0152
:041DD00020045C018E
:041DD400A0860100E4
:020000040030CA
:0E00000015137F7CF98B91FFFFC0FFE0FF40DE
:00000001FF
